:1000000030C100005FC100005DC100005BC10000A5
:1000100059C1000057C1000055C1000053C1000084
:1000200051C100004FC100004DC100004BC1000094
:1000300049C1000047C1000045C1000043C10000A4
:1000400041C100003FC100003DC100003BC10000B4
:1000500039C1000037C1000035C100000C94EA111D
:1000600031C100000C9402160C9438162BC100000C
:1000700029C1000027C1000025C1000023C10000E4
:1000800021C100001FC100001DC100001BC10000F4
:1000900019C1000017C1000015C1000013C1000004
:1000A00011C100000FC100000DC100000BC1000014
:1000B00009C1000007C1000005C1000003C1000024
:1000C00001C10000FFC00000FDC00000FBC0000037
:1000D000F9C00000F7C00000F5C00000F3C0000048
:1000E000F1C000004B02BA025002BA0257025C0291
:1000F000BA026102BA026602BA02BA026B02BA021C
:100100007002BA0275027A02BA027F02BA0284024F
:10011000321337133C1346135013C9135A13621387
:100120006A1374137E1388139713A113C913AB13A7
:10013000B513BF13EA13ED13DC13E013E613241415
:10014000F113F513FB13FF13031409140D14111409
:10015000241417141B141F1400000A0B02090C0DA1
:100160000E0807030401000000000000000000006A
:10017000000000000000000000000000000000007F
:10018000000000001211100000000000000000003C
:10019000000000000000000000000000000001025C
:1001A0001020200808102040102040800201020189
:1001B0000804020101020408102040808040201041
:1001C000080402018004020180402010080402019A
:1001D0000804020101020408102040800102040802
:1001E00010204080050505050705080808080202DB
:1001F00002020A0A080804040404010101010101C1
:1002000001010303030303030303040707070C0CA3
:100210000C0C0C0C0C0C020202020606060606066A
:1002200006060B0B0B0B0B0B0B0B00002200250023
:1002300028002B002E0031003400020100000501CF
:1002400008010B0100002100240027002A002D00D6
:100250003000330001010000040107010A019B0581
:100260006A1611241FBECFEFD1E2DEBFCDBF00E082
:100270000CBF13E0A0E0B2E0EEE0F7E300E00BBF5C
:1002800002C007900D92A634B107D9F724E0A6E486
:10029000B3E001C01D92AF3CB207E1F712E0C2E645
:1002A000D2E000E006C022970109FE010BBF0E94C8
:1002B000A918CE35D10780E00807A9F70E941818C1
:1002C0000C94851B9DCE9FB7F894209127048091B4
:1002D0002504213019F48DBB9FBF08958FBF089569
:1002E00020912704222399F03FB7F8942091270406
:1002F000213059F42DB3209325044DB320912604C9
:10030000209524232DBB3FBF02C0309325048CBD14
:100310009DBD0895AF92BF92CF92DF92EF92FF9270
:100320000F931F93CF93DF93CDB7DEB7C455D10999
:100330000FB6F894DEBF0FBECDBF8091A60390919B
:10034000A70320914703309148038217930759F47C
:100350004091A4035091A5032091490330914A0391
:100360004217530769F12091A5032F932091A4030D
:100370002F939F938F938DE792E09F938F938E019E
:100380000F5B1F4F1F930F930E94C318B80182E3A6
:1003900094E00E94F6168091A6039091A703909393
:1003A0004803809347038091A4039091A503909301
:1003B0004A03809349030FB6F894DEBF0FBECDBF4A
:1003C000BE016F5F7F4F8BE493E04BD6E82EF12C9C
:1003D000E114F10409F4CEC00E9434129F938F936C
:1003E0007F936F9380E992E09F938F938E010F5BD1
:1003F0001F4F1F930F930E94C318B80182E394E02C
:100400000E94EB164AE050E0B70182E394E00E94BC
:10041000CD176AE382E394E00E94EC16FE01319668
:100420007F015E01F4E0AF0EB11C0FB6F894DEBFA1
:100430000FBECDBF87E9C82E82E0D82EF70181918B
:100440007F011F928F93DF92CF921F930F930E9491
:10045000C318B80182E394E00E94EB160F900F904E
:100460000F900F900F900F90EA14FB0439F782E37E
:1004700094E00E94F3168981803909F04DC08A8189
:1004800090E0FC01F097E631F10508F073C0EE58FA
:10049000FF4F0C949918E0910A02F0910B0204C0EE
:1004A000E0910C02F0910D0281E0848763C0E0913D
:1004B0000E02F0910F02F8CFE0911002F0911102BC
:1004C000F3CFE0911202F0911302EECFE09114020B
:1004D000F0911502E9CFE0910A02F0910B0218C0E9
:1004E000E0910C02F0910D0213C0E0910E02F09128
:1004F0000F020EC0E0911002F091110209C0E091CC
:100500001202F091130204C0E0911402F09115025E
:10051000848591E08927C9CF803861F58A81843349
:10052000D1F048F4803391F0823321F5E0910C0250
:10053000F0910D021EC0873399F08933B1F08533F5
:10054000C9F4E0911002F091110213C0E0910A0287
:10055000F0910B020EC0E0910E02F0910F0209C063
:10056000E0911202F091130204C0E0911402F091A4
:1005700015021486CC5ADF4F0FB6F894DEBF0FBEBB
:10058000CDBFDF91CF911F910F91FF90EF90DF9042
:10059000CF90BF90AF900895EF92FF920F931F936B
:1005A000CF93DF93EC0100E010E06DE972E082E3AD
:1005B00094E00E94EB167E01E881F98162817381EB
:1005C0004AE050E082E394E00E94A41760E282E3F4
:1005D00094E00E94EC16E881F981608171814AE023
:1005E00050E082E394E00E94AB17E881F98161E07A
:1005F00082810E942514E881F98161E082810E9454
:100600005E14E881F98185859685009719F061E08F
:100610000E942514E881F98185859685009719F057
:1006200060E00E945E14E881F981878590890097D7
:1006300019F061E00E9425142296D701ED91FC91FA
:1006400087859089009721F060E070E00E940F1389
:100650000F5F1F4F0630110509F0A7CFDF91CF9133
:100660001F910F91FF90EF9008958F929F92AF92FC
:10067000BF92CF92DF92EF92FF920F931F93CF938F
:10068000DF93EC01E12CF12C94E6A92EB12C00E0D3
:1006900010E06E0188809980D4018C910E94EA124A
:1006A000F40191878087E881F98180859185268191
:1006B00037812817390714F497838683248135817D
:1006C0008217930714F49583848365E070E080E0DB
:1006D00090E00E946312C801B5010E944818892B5E
:1006E00029F46EE282E394E00E94EC160F5F1F4F44
:1006F000083EF3E01F0771F663EA72E082E394E0DC
:100700000E94EB164AE050E0B70182E394E00E94B9
:10071000A41760E282E394E00E94EC16E991F9915B
:10072000648175814AE050E082E394E00E94A4175E
:1007300060E282E394E00E94EC16D601ED91FC9118
:10074000668177814AE050E082E394E00E94AB1733
:10075000BFEFEB1AFB0AE6E0EE16F10409F097CFC3
:10076000DF91CF911F910F91FF90EF90DF90CF908D
:10077000BF90AF909F908F9008954F925F926F922D
:100780007F928F929F92AF92BF92CF92DF92EF9221
:10079000FF920F931F93CF93DF938C016EE382E35D
:1007A00094E00E94EC16E801612C712C55245A94B7
:1007B00034E1432EE881F9818485882321F061E0CA
:1007C00082810E945E1408811981F80180810E9453
:1007D000EA12F8019187808788809980F401E68089
:1007E000F7800027F7FC0095102F248135814427DE
:1007F00037FD4095542F60857185882777FD80955A
:10080000982F1F921F921F925F92A12CB12C65010D
:100810000E94D217F40173876287E881F98182858B
:1008200093850F900F900F900F908F3F910519F0C7
:1008300014F08FEF90E097FF02C080E090E0938784
:10084000828760E282E394E00E94EC16E881F981FD
:1008500084858823E9F1868197816AE070E00E94AF
:100860004818828593856817790714F461E001C000
:1008700060E085850E945E14E881F9816285738558
:10088000882777FD8095982F1F921F921F924F9275
:10089000A12CB12C6501E12CF12C8701EA9420E018
:1008A00030E0A9010E94D217E881F98187850E9472
:1008B0000F13E881F981628573854AE050E082E395
:1008C00094E00E94A4170F900F900F900F9019C002
:1008D00060E082810E945E14E881F98160E0858594
:1008E0000E945E14E881F98160E070E087850E94D3
:1008F0000F134AE050E060E070E082E394E00E9471
:10090000A417FFEF6F1A7F0A229686E0681671041B
:1009100009F050CF82E394E0DF91CF911F910F91C6
:10092000FF90EF90DF90CF90BF90AF909F908F900F
:100930007F906F905F904F900C94F31688EA93E04D
:100940000E94C91088EA93E06DD4803909F4E2DC92
:100950008AE092E012CF2C9A0895CF93C82F80E5B9
:1009600091E0BEDC2C98CEBD00000DB407FEFDCF9B
:100970008EB51EBC00000DB407FEFDCFCEB5EBDF7B
:100980008091270481119FDC8C2FCF9108951F93B4
:10099000CF93DF931F92CDB7DEB7182F80E591E09C
:1009A00069839EDC2C98812F82608EBD69810DB495
:1009B00007FEFDCF8EB56EBD0DB407FEFDCF8EB523
:1009C000CADF80912704882329F00F90DF91CF910F
:1009D0001F9179CC0F90DF91CF911F91089588EFEF
:1009E000BCDF807C803491F018F48823E1F0089516
:1009F000803819F0803C99F0089588EDAEDF81FDD4
:100A000009C069EC88EDC3DF82E00AC088EDA5DF8C
:100A100081FDF7CF6BEC88EDBADF83E001C081E0A8
:100A200080934603089561ED88EDB1DF109246038F
:100A300008950F931F93CF93DF938C01249A8BDF3C
:100A40000E94B811209A289A809101018F7B80938F
:100A5000010168E188E89BDF60E288E798DF60E0F9
:100A600088E795DFC0E0D0E088E677DF219680FD5B
:100A700006C0CF3F8FEFD807B9F78FEF16C061ECF4
:100A800088ED85DF60E680ED82DF64E088EE7FDF61
:100A900088EE63DF82FFFCCFC801A1DF60E288EC53
:100AA00076DF61E080E873DF80E0DF91CF911F9116
:100AB0000F91089526E040E855E260E070E082E39F
:100AC00094E00E94A21510924A03109249031092DA
:100AD00048031092470388EA93E0ABDF8F3F09F4A5
:100AE000FFCF68EC70E080E090E00E94631260EB62
:100AF00072E082E394E00E94F61664ED72E082E315
:100B000094E00E94F6168AE092E046DD64E670E02A
:100B100080E090E00E94631268EE72E082E394E06D
:100B20000E94F6168AE092E0A0DD68EF72E082E3B0
:100B300094E00C94F61688EA93E042D368EA73E0F6
:100B40008BE493E025C080E00895089580E0089547
:100B500080E0089581E008950895FC01858108955D
:100B6000CF93DF93EC018B819C81DC01ED91FC91B3
:100B70000480F581E02D6D81199581E08F831D82C0
:100B80001886C85ADF4F188280E0DF91CF91089510
:100B9000CF93DF93FC0189E093E09183808374839A
:100BA0006383158281E0878310861282DF01A85A51
:100BB000BF4F1C9220E030E080E090E0DF01A20F08
:100BC000B31F19961C921997482F882311F050E0F3
:100BD00001C058E01A965C931A971B961C92442306
:100BE00011F041E001C044E0DC01AA0FBB1FA80FD7
:100BF000B91FAE0FBF1F542F550F550F1B964C91A9
:100C00001B974370452B1B964C9301962D5F3F4FCE
:100C10008530910599F661157105B9F0CB01A0E019
:100C2000B0E0EC01CA5ADF4F28813981232B41F40F
:100C30009B96AA0FBB1FA60FB71FED93FC9305C091
:100C400011960296A031B10561F7DF91CF91089519
:100C50009F92AF92BF92CF92DF92EF92FF920F934B
:100C60001F93CF93DF93CDB7DEB7DA950FB6F89425
:100C7000DEBF0FBECDBF6C01162F942ECE010196A4
:100C80007C01042F24E030E040E0D60113968D91E2
:100C90009C9114970E94640E811165C0AC80B12CA8
:100CA000BA2CAA248B81A82AB1E0AB16BB0618F097
:100CB000A12CBB24B394FE0131967F01092D95012F
:100CC00040E0612FD60113968D919C911497FCD72B
:100CD000811149C020E0F701AE0CBF1CEA15FB05ED
:100CE00008F041C040818181843049F0853091F025
:100CF0008230B1F58581D60116968C9331C08581FD
:100D0000813069F59681933051F5D60112968C9316
:100D100021E026C0838181FF23C03281832F80950B
:100D2000881F8827881F222311F08F5F01C08D5FE5
:100D300090E0DC01AA0FBB1FA80FB91FAC0DBD1DB1
:100D40003F7019963C93199784811A968C93D6011B
:100D500017968C9117978F5F17968C9301C020E0A0
:100D6000E40FF11DBBCFD3950FB6F894DEBF0FBED5
:100D7000CDBFDF91CF911F910F91FF90EF90DF904A
:100D8000CF90BF90AF909F9008953F924F925F9207
:100D90006F927F928F929F92AF92BF92CF92DF928B
:100DA000EF92FF920F931F93CF93DF93CDB7DEB7F0
:100DB000DA950FB6F894DEBF0FBECDBF7C01462E8C
:100DC000342E522EDC011396CD90DC90149715969C
:100DD0008C918111D3C0D601ED91FC910190F081ED
:100DE000E02D60E0C60119955C01009711F486EDD5
:100DF000CAC0FC01608071806114710409F4C0C034
:100E00004701F9E08F0E911CDC0111969C928E92A5
:100E100014965C928E010F5F1F4F22E130E040E09C
:100E200060E0F7018381948129D7182F2A8530E06B
:100E3000322F22278985280F311DF701E55AFF4FF0
:100E4000318320832C8530E0322F22278B85280F99
:100E5000311D329731832083D5016D927C9211111F
:100E600083C0D601ED91FC910280F381E02D232D0A
:100E700040E0642DC6011995F7018583882309F4A4
:100E800081C098859287282F40E060E0838194811B
:100E900041D7182FD601ED91FC91D50114961C92E3
:100EA000882359F00480F581E02DD70115966C91C7
:100EB000C6011995F70115825FC00190F081E02D00
:100EC000D70115966C91C6011995009709F48FCF3B
:100ED000FC015482CA88940141E0D70115966C91B7
:100EE000159713968D919C9114975ED2182F8111AE
:100EF0003BC0D12CDC1451F04D2DF7016581C701A9
:100F0000A7DED70117968C91823028F0F7018681F1
:100F1000882351F102C0D394EDCF8281811108C0A2
:100F20008289848783898587858987878689808B5D
:100F30009401F701478165818381948135D2D7017E
:100F400016962C91169740E015966C91159713966E
:100F50008D919C9114970BD7182F811105C081E0BA
:100F6000F701808780E00FC0D701ED91FC910480EC
:100F7000F581E02DC7011995812F05C089ED03C0CA
:100F800087ED01C084EDD3950FB6F894DEBF0FBE98
:100F9000CDBFDF91CF911F910F91FF90EF90DF9028
:100FA000CF90BF90AF909F908F907F906F905F9009
:100FB0004F903F900895CF92DF92EF920F931F933F
:100FC000CF93DF93FC01EB016A01858590E0998363
:100FD0008883E12C8A019B0144856581838194810A
:100FE000EAD6288139812C33310548F4F601E20F25
:100FF000F31F1082E881F981EC0DFD1D1182DF9154
:10100000CF911F910F91EF90DF90CF900895603FA7
:1010100008F4607F603E19F178F4603A01F128F439
:101020006038E9F06039A9F41AC0603CA1F0603D75
:1010300091F0603B71F413C06D3F48F4683F68F471
:10104000623F69F0633F39F0613F19F404C06E3FBD
:1010500020F480E0089582E0089581E0089583E01F
:101060000895CF92DF92EF92FF920F931F93CF9349
:10107000DF931F921F92CDB7DEB78C016B01FC018D
:101080008085882309F45CC07801F8E5EF0EF11C37
:10109000F70180819FEF980F9F33C8F5F801E80FA3
:1010A000F11D808D882381F1F70180818F5F80831E
:1010B000F801E80FF11D808DF6018083F701808132
:1010C0008F5F8083F801E80FF11D808DF601818329
:1010D000F70180818F5F8083F801E80FF11D808D1B
:1010E000F6018283F70180818F5F8083F601608142
:1010F000C8010F900F90DF91CF911F910F91FF903A
:10110000EF90DF90CF9083CF818D8111CDCFF7010C
:101110001082A801485E5F4FBE016F5F7F4FC8011C
:101120004ADF81110DC0F801808D8111BDCF818D05
:101130008111BACF828D8111B7CF838D8111B4CF48
:1011400080E00F900F90DF91CF911F910F91FF9052
:10115000EF90DF90CF900895FC0120812EBDDC013F
:101160009B012150310951F011965C9111970DB4FA
:1011700007FEFDCF4EB55EBD4D93F3CFFB0131971A
:10118000E80FF91F0DB407FEFDCF8EB580830895DB
:101190008EBD00000DB407FEFDCF8EB50895809181
:1011A0002704882361F09FB7F89420912704809149
:1011B0002504213019F48DBB9FBF08958FBF08957A
:1011C000FC018FE193E0918380831582108681E09A
:1011D000818712869F012E5F3F4F378326831282BD
:1011E00088E083838CE3848380E090E041E0DF014A
:1011F000A80FB91F1D961C921D971E964C931E9703
:101200001F961C921F971C963C932E931B97059636
:101210008B34910561F7EA58FF4F108281E180938A
:101220002304089580912304089520E030E041E0F4
:10123000FC01E20FF31F5585561739F04F5F2B5F06
:101240003F4F4031A9F780E00895842F0895EF9231
:10125000FF921F93CF93DF931F921F92CDB7DEB7FC
:101260007C01162F67FD5EC0283008F05BC0442368
:1012700031F0DC0115968C91873009F453C060E0A1
:10128000C7012A834983D1DF2A814981882309F450
:1012900049C0E82FF0E0111123C085E08E9FD001F6
:1012A0008F9FB00D1124AE0DBF1D442359F081E472
:1012B00018968C93D70115968C9115978F5F15967C
:1012C0008C9303C081E018968C9385E08E9FD001AB
:1012D0008F9FB00D1124AE0DBF1D18968C9123C0A9
:1012E000612F6770660F660F660F442361F06064BC
:1012F000D70115968C9115978F5F15968C938770F3
:10130000687F682B03C02770687B622B85E08E9F07
:10131000D0018F9FB00D1124AE0DBF1D18966C9398
:10132000862F01C080E00F900F90DF91CF911F9129
:10133000FF90EF900895CF93DF93EC01662351F077
:1013400074DF882349F09E0145E0849F200D311D04
:101350001124C901069602C080E090E0DF91CF9190
:101360000895CF93DF931F92CDB7DEB74983E3DFB4
:101370004981009789F0DC01ED91FC91119730973C
:1013800059F013969C9180E0891731F02081241741
:1013900031F033968F5FF8CF80E090E001C0CF014D
:1013A0000F90DF91CF910895EF92FF921F93CF930B
:1013B000DF931F92CDB7DEB7162F790121153105C6
:1013C00061F04983B8DFFC014981009741F0128345
:1013D000F182E082438380E003C088ED01C086EDA6
:1013E0000F90DF91CF911F91FF90EF9008952C986F
:1013F00008951F93CF93DF931F92CDB7DEB7182FB9
:1014000080E591E00E947001F2DF812FC1DE80E073
:10141000BFDE8983A0DAC3DE89810F90DF91CF918F
:101420001F9108951F93CF93DF9300D0CDB7DEB700
:10143000182F80E591E06B830E947001D8DF126065
:1014400019836B816A8362E070E0CE01019684DECD
:1014500082DAA5DE0F900F900F90DF91CF911F9150
:1014600008958F929F92BF92CF92DF92EF92FF9258
:101470000F931F93CF93DF931F92CDB7DEB74C012D
:10148000B62E6901498357DF7C014981009709F431
:101490003FC0FC0180819181892B09F43BC06B2DF9
:1014A000C4015FDFF601918380830097A9F1FC01FD
:1014B000228126952695822F90E0409764F441E0A2
:1014C00050E060E070E004C0440F551F661F771FB6
:1014D0002A95D2F702C040E050E841505109F80186
:1014E000518340836B2D80EE9DDF88ED82DFF70115
:1014F0009481992339F0F401EA58FF4F60816260CA
:10150000682B02C0682F697F88ED8CDF80E005C002
:1015100086ED03C087ED01C08BED0F90DF91CF9179
:101520001F910F91FF90EF90DF90CF90BF909F9011
:101530008F9008958F929F92AF92BF92CF92DF9239
:10154000EF92FF920F931F93CF93DF931F92CDB72C
:10155000DEB7A62E8901498387D76B017C0188E815
:10156000C80E83E1D81EE11CF11C812C912CB12CFA
:1015700020E04981A42A298377D76C197D098E0937
:101580009F09298197FF28C06A2D80EF4BDF6CD718
:101590006C197D098E099F0997FF07C088EC29DF28
:1015A00087FFF5CF60E888EC3DDF88EF22DF282F4A
:1015B0002F70243019F02E3059F00EC0EFEF8E1A34
:1015C0009E0A01151105B9F280169106A1F604C014
:1015D000B394F3E0BF12CFCF822F0F90DF91CF9162
:1015E0001F910F91FF90EF90DF90CF90BF90AF9041
:1015F0009F908F9008959F92AF92BF92CF92DF926B
:10160000EF92FF920F931F93CF93DF937C01B42E41
:10161000122FAA24A394DC01A60FB11DA60FB11DA1
:101620006D0186E5C80ED11CC42FD0E0AB96CC0F5F
:10163000DD1FCE0DDF1DD6018D919C91DC01ED915A
:10164000FC910280F381E02D202F412F6B2D199505
:10165000803EB1F4B11009C061E088EEE3DE66E6D9
:1016600070E080E090E02FD715C088819981DC017F
:10167000ED91FC910284F385E02D612F19950AC04C
:101680008D3031F48FEF8A0D833008F03FC017C0E2
:1016900081113FC0F60180819181DC01ED91FC91C7
:1016A0000190F081E02D202F412F6B2D1995982E60
:1016B000BDE08B130BC08FEF8A0D833048F464E6D6
:1016C00070E080E090E0FFD6A394B5CF882301F1CD
:1016D000B11009C061E088EEA5DE66E670E080E04A
:1016E00090E0F1D611C0EB2DF0E0BB96EE0FFF1F9E
:1016F000EE0DFF1D80819181DC01ED91FC91028452
:10170000F385E02D612F1995892D03C08DE001C06F
:1017100080E0DF91CF911F910F91FF90EF90DF90CC
:10172000CF90BF90AF909F9008950F931F93CF934A
:10173000DF93D82FC62F8A0180E591E00E947001C7
:1017400056DE8D2F826024DDD0E0209719F0BE0197
:10175000C80102DDC00FD11FFED821DDCE01DF910F
:10176000CF911F910F9108952F923F924F925F92C8
:101770006F927F928F929F92AF92BF92CF92DF92A1
:10178000EF92FF920F931F93CF93DF9300D01F929E
:101790001F92CDB7DEB77D836C835A016901FB01CF
:1017A00021808FEF820D803408F065C05DD62B015B
:1017B0003C01F8E84F0EF3E15F1E611C711CEC81E7
:1017C000FD81828180FF02C060E801C060E488EE94
:1017D00029DE20E0312CC114D10409F43DC076018A
:1017E0002C143D0408F47101EA82A8016E2D80E1F9
:1017F0009CDF6E2D88E316DEEC81FD8160816062E6
:1018000080EF10DE88ECF5DD87FFFCCF60E888EC28
:1018100009DE88EFEEDD282F2F70812C912C1982A4
:10182000222309F460C02B831FD664197509860929
:1018300097092B8197FF57C02630F9F02E3009F415
:101840004CC0243049F4FFEF8F1A9F0AA114B10451
:1018500041F18A149B0429F588EF2B83CADD85FBAF
:10186000882780F9EC81FD81928180FB90F9928339
:101870002B81822F3DC08AED3BC088EFBADD85FB0E
:10188000882780F991E08927EC81FD81928180FB96
:1018900090F9928390FF02C060E801C060E488EE96
:1018A000C1DD60E088E3BEDDF801608180E1BADD82
:1018B0006A8188E3B7DDEC81FD816081606280EF41
:1018C000B1DD88EC96DD87FFFCCF60E888ECAADD0F
:1018D00088EF8FDD282F2F70A3CF89818F5F8983B9
:1018E0008330F9F6B9CFCE18DF080E0D1F1D73CF68
:1018F0000F900F900F900F900F90DF91CF911F914D
:101900000F91FF90EF90DF90CF90BF90AF909F909E
:101910008F907F906F905F904F903F902F900895A1
:101920002F923F924F925F926F927F928F929F92EF
:10193000AF92BF92CF92DF92EF92FF920F931F93DD
:10194000CF93DF93CDB7DEB729970FB6F894DEBFFC
:101950000FBECDBF1C01798768875B834A8369010D
:10196000D9018D909C901197FB01F181F9831D9213
:101970001C92DB0112968C9181FF02C060E201C0D3
:1019800060E188EE4FDD8E2D90E0A0E0B0E08C832A
:101990009D83AE83BF83482C2A813B81A885B9856E
:1019A0004C9160E0C101C6DDF82EB6E08B1314C087
:1019B00088EF1FDD8295817091E08927E885F985A0
:1019C000928180FB91F9928391FF02C060E201C095
:1019D00060E188EE27DDE0CF81115DC088EC09DD94
:1019E00082FF57C080E305DD582E90E088169906E7
:1019F00008F4542CD6018D919C91652C712CF40126
:101A0000E81BF90BCF01F7FF02C080E090E0530123
:101A1000861597050CF45C0180E591E00E94700149
:101A2000E6DC88E0B5DBA50160E070E0C8010E945B
:101A3000BC18A114B10419F0B501C8018DDB0A0D61
:101A40001B1D0E94AB04ABDB64E088ECEBDCD60131
:101A50008D919C911197860D971D8D939C93B981C3
:101A60005B1618F08815990558F088EFC2DC82954E
:101A70008170E885F985928180FB91F992830BC092
:101A8000EE2009F489CF6C817D818E819F811BD5E9
:101A900083CF30EFF32E8F2D29960FB6F894DEBF4B
:101AA0000FBECDBFDF91CF911F910F91FF90EF90AF
:101AB000DF90CF90BF90AF909F908F907F906F906E
:101AC0005F904F903F902F9008952F923F924F92AA
:101AD0005F926F927F928F929F92AF92BF92CF92BE
:101AE000DF92EF92FF920F931F93CF93DF93CDB7C7
:101AF000DEB762970FB6F894DEBF0FBECDBF3C01D4
:101B0000F42E322E202E5C2D48A459A4CAA4DBA4A6
:101B1000188A1F861E861D868E01035F1F4F9E0139
:101B2000215F3F4F598B9DDC598981118EC03982CD
:101B30002A82EB825C83BE82AD8298868F82AE0160
:101B40004F5F5F4F68E080E2F0DD2D853E854F2DD1
:101B500060E1C301EFDC182F811176C0232C221C19
:101B60002224221CC114D10409F463C0EF85F88932
:101B70008281222009F451C082608283540133247F
:101B80003394A114B10409F452C05C864B864D8590
:101B90005E856F857889E12C86019E01255F3F4F28
:101BA000C301BEDE182F8630A9F42F85388988EF4F
:101BB000298B3A8B1EDC85FB882780F983252989B0
:101BC0003A89D90112969C91129780FB91F912964D
:101BD0009C93D7CF811138C0ECA5FDA53097A1F01B
:101BE0000190F081E02D0190F081E02DC4018A196F
:101BF0009B099A8789876B857C859E01275F3F4F6C
:101C0000A6018CA59DA519958B859C85A81AB90A56
:101C10008415950508F0B5CF0CC0816082834D8591
:101C20005E8586019201BF01C3019EDD182F11114F
:101C30000BC02D853E85222011F060EA01C060E8CE
:101C40004F2DC30177DC01C0812F62960FB6F89447
:101C5000DEBF0FBECDBFDF91CF911F910F91FF90DF
:101C6000EF90DF90CF90BF90AF909F908F907F903C
:101C70006F905F904F903F902F9008958F929F921A
:101C8000AF92BF92CF92EF920F931F931F921F922A
:101C90001F930F933F932F934901A12CB12CCC2478
:101CA000C394E12C06E020E810DF0F900F900F9016
:101CB0000F900F900F901F910F91EF90CF90BF90CA
:101CC000AF909F908F9008958F929F92AF92BF9206
:101CD000CF92EF92FF920F931F921F92FF92EF927B
:101CE0003F932F934901A12CB12C52E0C52EE02E39
:101CF00006E020E8EADE0F900F900F900F900F9013
:101D00000F900F91FF90EF90CF90BF90AF909F906A
:101D10008F9008958F929F92AF92BF92CF92EF9241
:101D20000F93CF931F921F921F921F921F921F9289
:101D3000812C912CA12CB12CC12CE22E05E020E0AD
:101D4000C4DEC82F6CE271E080E090E0BCD30F905D
:101D50000F900F900F900F900F908C2FCF910F91AD
:101D6000EF90CF90BF90AF909F908F9008958F92FB
:101D70009F92AF92BF92CF92EF920F931F921F92BA
:101D80001F921F921F921F92812C912CA12CB12C7B
:101D9000C12CE22E09E020E098DE0F900F900F900A
:101DA0000F900F900F900F91EF90CF90BF90AF904A
:101DB0009F908F9008958F929F92AF92BF92CF92F3
:101DC000DF92EF920F931F93CF93DF9300D01F9278
:101DD000CDB7DEB76C01590148011C821B821A8203
:101DE00019828E010F5F1F4F9E012D5F3F4F39DB20
:101DF000811108C049815A816B817C8184019501E0
:101E0000C6018EDD0F900F900F900F90DF91CF9154
:101E10001F910F91EF90DF90CF90BF90AF909F9068
:101E20008F900895CF92DF92FF920F931F93CF93DD
:101E3000DF931F921F92CDB7DEB76C01662309F4C2
:101E400041C0062F10E085E0689FB0011124F60123
:101E5000E60FF71F8085282F277086FF19C031E015
:101E6000E5E0FE2EF601F39EE00DF11D11248085C4
:101E700086958695869587708217E1F03F5F3031B1
:101E800088F3F6018581821303C02150F601258372
:101E900085E0809FF001819FF00D1124EC0DFD1D68
:101EA000108681E08187128682E0C80ED11CD7821D
:101EB000C68208C0632FC6012A833983B3DF2A8113
:101EC0003981D0CF0F900F90DF91CF911F910F915B
:101ED000FF90DF90CF900895CF93DF93EC016134B2
:101EE000A1F4FC01855B9F4F41E09E012E5F3F4FB7
:101EF000158646871786348723873596E817F907AE
:101F0000B9F71D82DF91CF9108958FD9682FCE0147
:101F1000DF91CF9187CF0F931F93CF93DF93EC0186
:101F2000022FCA3F8FEFD80711F486ED25C08E81AE
:101F30009F81892BE1F02A87242F40E0CE0187D9A9
:101F4000182F8823B1F0682FCE01F5D9009769F3D7
:101F5000FC010483212F40E060E0CE01DBDE082F8E
:101F6000882349F0612FCE01B7DF802F05C087EDB0
:101F700003C084ED01C080E0DF91CF911F910F91EC
:101F800008952F923F924F925F926F927F928F921D
:101F90009F92AF92BF92CF92DF92EF92FF920F93F8
:101FA0001F93CF93DF93CDB7DEB766970FB6F89444
:101FB000DEBF0FBECDBF7C01862E742E922E1B8AF3
:101FC00088E08C8B8CE38D8BD701ED91FC91019097
:101FD000F081E02D60E0C70119956C01009709F4CC
:101FE000A9C0FC01A080B180CE014396918380837B
:101FF00094828E010F5F1F4F22E130E040E060E0ED
:10200000C7013CDED601AD92BC928111A9C02984E2
:102010003A844B845C84BD81BE8B1E815701612C48
:102020006501E6E5CE0ED11CD6018D919C910097FD
:1020300089F1DC01ED91FC910084F185E02D199589
:10204000811128C0F60180819181DC01ED91FC9124
:102050000088F189E02D612F19958823D9F0F601C8
:1020600080819181DC01ED91FC910484F585E02D66
:10207000A201B101199581115FC0F60180819181A2
:10208000DC01ED91FC910684F785E02D6E891995B0
:10209000811152C06394B2E0AB0EB11CE0E16E124C
:1020A000BFCF5701612C6501F6E5CF0ED11CD601DB
:1020B0008D919C91009789F1DC01ED91FC91008458
:1020C000F185E02D1995811128C0F601808191815B
:1020D000DC01ED91FC910088F189E02D612F1995CB
:1020E0008823A1F1F60180819181DC01ED91FC91C1
:1020F0000484F585E02DA201B101199581110DC06F
:10210000F60180819181DC01ED91FC910684F785D7
:10211000E02D6E8919958823C9F06394B2E0AB0E67
:10212000B11CE0E16E12BFCF292D472D682DC701EC
:10213000F2DE16C086ED14C0092D272D482D662D20
:10214000C70159DA813D09F4A5CF0AC0092D272D11
:10215000482D662DC7014FDA982F977F913DE9F200
:1021600066960FB6F894DEBF0FBECDBFDF91CF915C
:102170001F910F91FF90EF90DF90CF90BF90AF90A5
:102180009F908F907F906F905F904F903F902F9097
:102190000895FF920F931F93CF93DF93EC018091EB
:1021A000000186FD0CC088EC24D985FF05C0CE0156
:1021B0000E94EF0460E201C060E088EC33D98091B6
:1021C0004603813051F058F0823029F0833031F5E8
:1021D000FF24F3940DC0F12C0BC083E106C0809165
:1021E0002304807F8031D1F081E18093230416C0E5
:1021F00080912304807F803191F436D168537F4FE2
:102200008F4F9F4F60931F0470932004809321048D
:102210009093220480E28093230401C0F12C00E01B
:1022200010E0FE01E00FF11FEA5AFF4F808191811B
:10223000009739F0DC01ED91FC910680F781E02DEB
:1022400019950E5F1F4F0032110559F78091230435
:10225000803409F444C070F4803269F18033D1F1E4
:10226000813109F07FC0FE01EA58FF4F108200E083
:1022700010E00AC0813509F453C0803809F462C007
:10228000803509F06FC037C0FE01E00FF11FEA5A38
:10229000FF4F80819181009739F0DC01ED91FC9135
:1022A0000480F581E02D19950E5F1F4F0032110556
:1022B00059F782E155C0D8D000911F041091200435
:1022C0002091210430912204601B710B820B930B2F
:1022D00097FD48C061E088EEA5D880E441C088EE53
:1022E00088D880FD3FC088ED84D8682F686088ED6D
:1022F00099D880E535C088EC7CD886FF33C081E56D
:1023000080932304B1D06C5E7F4F8F4F9F4F6093BB
:102310001F0470932004809321049093220422C010
:10232000A3D000911F04109120042091210430912A
:102330002204601B710B820B930B97FD13C080E886
:10234000809323042F2D40E060E0CE011ADE882325
:1023500031F0823D39F08093240480EA01C080E9A5
:1023600080932304DF91CF911F910F91FF900895E7
:10237000CF93CFB7F89480912804811123C0E9E16D
:10238000F2E08491E3EDF1E09491E82FF0E0EE0FBC
:10239000FF1FEC5BFD4FA591B4918C91892319F43B
:1023A00061E085E38BD261E085E34FD28CB580613B
:1023B0008CBD8CB580648CBD61E084E346D261E065
:1023C00083E343D2809128048F5F80932804CFBF9A
:1023D000CF9108951F920F920FB60F9211242F9351
:1023E0003F938F939F93AF93BF9380912A049091D3
:1023F0002B04A0912C04B0912D043091290423E0EA
:10240000230F2D3720F40196A11DB11D05C026E82C
:10241000230F0296A11DB11D2093290480932A0445
:1024200090932B04A0932C04B0932D0480912E0440
:1024300090912F04A0913004B09131040196A11D18
:10244000B11D80932E0490932F04A0933004B09379
:102450003104BF91AF919F918F913F912F910F9038
:102460000FBE0F901F9018952FB7F89460912A0413
:1024700070912B0480912C0490912D042FBF08950E
:102480003FB7F89480912E0490912F04A0913004CE
:10249000B091310426B5A89B05C02F3F19F00196D5
:1024A000A11DB11D3FBF6627782F892F9A2F620F7C
:1024B000711D811D911D42E0660F771F881F991FB6
:1024C0004A95D1F70895CF92DF92EF92FF92CF9382
:1024D000DF936B017C01D4DFEB01C114D104E10473
:1024E000F10479F0B1D5CCDF6C1B7D0B683E7340F5
:1024F000A0F381E0C81AD108E108F108C851DC4F07
:10250000ECCFDF91CF91FF90EF90DF90CF900895C7
:10251000789484B5826084BD84B5816084BD85B5BE
:10252000826085BD85B5816085BDEEE6F0E0808185
:1025300081608083E1E8F0E01082808182608083A6
:10254000808181608083E0E8F0E080818160808329
:10255000E1EBF0E0808184608083E0EBF0E080815B
:1025600081608083E1E9F0E0808182608083808106
:1025700081608083E0E9F0E0808181608083E1EA2E
:10258000F0E0808182608083808181608083E0EAE6
:10259000F0E0808181608083E1E2F1E0808182600F
:1025A0008083808181608083E0E2F1E080818160CE
:1025B0008083EAE7F0E080818460808380818260AC
:1025C0008083808181608083808180688083109295
:1025D000C1000895863308F0865320917B00982F20
:1025E0009870277F922B90937B00877020917C02BC
:1025F00090E4299F90011124822B80937C0080918C
:102600007A00806480937A0080917A0086FDFCCF06
:10261000809178002091790090E0922B08951F938B
:10262000CF93DF93182FEB0161E00FD1209711F4C6
:1026300060E004C0CF3FD10531F461E0812FDF912C
:10264000CF911F913BC1E12FF0E0E85AFE4F44913A
:1026500050E0FA013197E231F10508F09AC0E857ED
:10266000FF4F67C584B5806884BDC7BD97C084B57A
:10267000806284BDC8BD92C08091800080688093D4
:102680008000D0938900C093880088C0809180002A
:10269000806280938000D0938B00C0938A007EC0BC
:1026A00080918000886080938000D0938D00C093DB
:1026B0008C0074C08091B00080688093B000C0939B
:1026C000B3006CC08091B00080628093B000C09372
:1026D000B40064C080919000806880939000D09393
:1026E0009900C09398005AC08091900080628093B6
:1026F0009000D0939B00C0939A0050C080919000AE
:10270000886080939000D0939D00C0939C0046C049
:102710008091A00080688093A0008091A0008F7BB2
:102720008093A000D093A900C093A80037C08091E7
:10273000A00080628093A000D093AB00C093AA0059
:102740002DC08091A00088608093A000D093AD0040
:10275000C093AC0023C08091200180688093200149
:10276000D0932901C093280119C080912001806273
:1027700080932001D0932B01C0932A010FC0809138
:102780002001886080932001D0932D01C0932C01FB
:1027900005C0C038D1050CF050CF4ACFDF91CF91A2
:1027A0001F91089590E0FC013197E231F10508F0A6
:1027B0004BC0E656FF4FBDC4809180008F7703C0A9
:1027C000809180008F7D80938000089580918000AB
:1027D000877FF9CF84B58F7702C084B58F7D84BDA4
:1027E00008958091B0008F7703C08091B0008F7DF5
:1027F0008093B0000895809190008F7707C08091FA
:1028000090008F7D03C080919000877F809390001F
:1028100008958091A0008F7707C08091A0008F7DE0
:1028200003C08091A000877F8093A00008958091CD
:1028300020018F7707C0809120018F7D03C0809198
:102840002001877F809320010895CF93DF9390E04C
:10285000FC01E256FE4F2491FC01EC51FE4F8491A5
:10286000882349F190E0880F991FFC01EC5BFD4F34
:10287000A591B491865D9D4FFC01C591D4919FB700
:10288000611108C0F8948C91209582238C938881E3
:1028900082230AC0623051F4F8948C91322F309523
:1028A00083238C938881822B888304C0F8948C9135
:1028B000822B8C939FBFDF91CF9108950F931F932D
:1028C000CF93DF931F92CDB7DEB7282F30E0F90109
:1028D000E85AFE4F8491F901E256FE4F1491F90136
:1028E000EC51FE4F04910023C1F0882319F0698355
:1028F00059DF6981E02FF0E0EE0FFF1FE65DFD4F2D
:10290000A591B4919FB7F8948C91611103C0109573
:10291000812301C0812B8C939FBF0F90DF91CF91BA
:102920001F910F910895FC01818D228D90E0805CB4
:102930009F4F821B91098F7399270895FC01918DF8
:10294000828D981731F0828DE80FF11D858D90E012
:1029500008958FEF9FEF0895FC01918D828D981758
:1029600061F0828DDF01A80FB11D5D968C91928D73
:102970009F5F9F73928F90E008958FEF9FEF089570
:1029800081E696E1892B39F080E090E0892B19F0FF
:1029900098D1811125C080E090E0892B41F080E042
:1029A00090E0892B21F00E94000081111CC080E082
:1029B00090E0892B41F080E090E0892B21F00E948B
:1029C0000000811113C080E090E0892BA1F080E02D
:1029D00090E0892B81F00E94000081110AC00895C7
:1029E0000E940000D8CF0E940000E1CF0E940000AA
:1029F000EACF0C9400000895FC01848DDF01A80F3C
:102A0000B11DA35ABF4F2C91848D90E001968F7316
:102A10009927848FA689B7892C93A089B1898C9135
:102A200080648C93938D848D981306C00288F389FB
:102A3000E02D80818F7D80830895CF93DF93EC011B
:102A4000888D8823C1F0EA89FB89808185FD05C0D6
:102A5000A889B9898C9186FD0EC00FB607FCF5CF09
:102A6000808185FFF2CFA889B9898C9185FFEDCF50
:102A7000CE01C2DFE8CFDF91CF910895CF92DF92F0
:102A8000FF920F931F93CF93DF931F92CDB7DEB7C3
:102A90006C0181E0D60158968C9358975B969C9177
:102AA0005B975C968C915C97981307C05096ED915C
:102AB000FC915197808185FD2DC0F601038D10E0BA
:102AC0000F5F1F4F0F731127F02EF601848DF81240
:102AD00010C00FB607FCF9CFD6015096ED91FC91CE
:102AE0005197808185FFF1CFC601698385DF6981B8
:102AF000ECCF838DE80FF11DE35AFF4F6083D601C1
:102B00005B960C935B975296ED91FC915397808165
:102B100080620CC0D6015696ED91FC915797608368
:102B20005096ED91FC91519780818064808381E083
:102B300090E00F90DF91CF911F910F91FF90DF9068
:102B4000CF900895BF92CF92DF92EF92FF92CF93F2
:102B5000DF93EC016A017B01B22EE889F98982E0FA
:102B60008083411581EE58076105710599F060E099
:102B700079E08DE390E0A70196019DD221503109C3
:102B8000410951095695479537952795211580E1BB
:102B9000380790F0E889F989108260E874E88EE1DE
:102BA00090E0A701960187D22150310941095109CE
:102BB0005695479537952795EC85FD853083EE85AD
:102BC000FF852083188EEC89FD89B082EA89FB8914
:102BD000808180618083EA89FB898081886080832D
:102BE000EA89FB89808180688083EA89FB8980810A
:102BF0008F7D8083DF91CF91FF90EF90DF90CF901A
:102C0000BF9008951F920F920FB60F9211240BB62A
:102C10000F922F938F939F93EF93FF93E091420432
:102C2000F09143048081E0914804F091490482FDD1
:102C300012C0908180914B048F5F8F7320914C0460
:102C4000821751F0E0914B04F0E0EE5CFB4F958F62
:102C500080934B0401C08081FF91EF919F918F91F0
:102C60002F910F900BBE0F900FBE0F901F901895D5
:102C70001F920F920FB60F9211240BB60F922F9343
:102C80003F934F935F936F937F938F939F93AF93F4
:102C9000BF93EF93FF9382E394E0AEDEFF91EF9159
:102CA000BF91AF919F918F917F916F915F914F9164
:102CB0003F912F910F900BBE0F900FBE0F901F9062
:102CC000189582E394E02FDE21E0892B09F420E0BF
:102CD000822F0895109235041092340488EE93E008
:102CE000A0E0B0E08093360490933704A0933804BA
:102CF000B093390489E293E09093330480933204D3
:102D000085EC90E090933F0480933E0484EC90E047
:102D1000909341048093400480EC90E090934304AE
:102D20008093420481EC90E09093450480934404A6
:102D300082EC90E0909347048093460486EC90E008
:102D4000909349048093480410924B0410924C04D1
:102D500010924D0410924E040895CF92DF92EF929C
:102D6000FF920F931F93CF93DF937C016A01EB01D6
:102D700000E010E00C151D0571F06991D701ED918F
:102D8000FC910190F081E02DC7011995892B19F074
:102D90000F5F1F4FEFCFC801DF91CF911F910F91B0
:102DA000FF90EF90DF90CF9008956115710581F04D
:102DB000DB010D900020E9F7AD0141505109461BA0
:102DC000570BDC01ED91FC910280F381E02D199409
:102DD00080E090E00895E9CFDC01ED91FC91019055
:102DE000F081E02D199465E373E0DFCF0F931F931B
:102DF000CF93DF93EC01D9DF8C01CE01F4DF800F9C
:102E0000911FDF91CF911F910F9108958F929F9203
:102E1000AF92BF92CF92DF92EF92FF920F931F93E8
:102E2000CF93DF93CDB7DEB7A1970FB6F894DEBF8F
:102E30000FBECDBF7C01C42EE52FCB01D22E19A22F
:102E400021E02D1510F02AE0D22E8E010F5D1F4FCC
:102E50008D2C912CA12CB12C6C2D7E2FA5019401D1
:102E60002AD18C2DD29E80191124015011098A304B
:102E700014F4805D01C0895CF8018083211531055F
:102E80004105510521F0C22EE32FCA01E5CFB8015B
:102E9000C7018BDFA1960FB6F894DEBF0FBECDBF82
:102EA000DF91CF911F910F91FF90EF90DF90CF9026
:102EB000BF90AF909F908F900895CF92DF92EF9246
:102EC000FF920F931F93CF93DF93EC016A017B0175
:102ED0002115310579F4E881F9810190F081E02D27
:102EE000642FDF91CF911F910F91FF90EF90DF90B2
:102EF000CF9019942A303105D9F477FF18C06DE2CC
:102F00006BDF8C0144275527BA014C195D096E0906
:102F10007F092AE0CE017ADF800F911FDF91CF91E8
:102F20001F910F91FF90EF90DF90CF9008952AE0CE
:102F3000B701A601CE01DF91CF911F910F91FF90B4
:102F4000EF90DF90CF9062CF9A01AB01662757FDDB
:102F50006095762FB2CF0F931F93CF93DF93EC0141
:102F60009A01AB01662757FD6095762FA6DF8C018D
:102F7000CE0139DF800F911FDF91CF911F910F910B
:102F800008952115310541F4DC01ED91FC9101908A
:102F9000F081E02D642F199439CF9A01AB0160E0E4
:102FA00070E0EFCF4F925F926F927F92AF92BF929D
:102FB000CF92DF92EF92FF920F931F93CF93DF9305
:102FC000CDB7DEB729013A01621B730B840B950B59
:102FD0002A893B894C895D892A193B094C095D097D
:102FE0002A8B3B8B4C8B5D8B9B01AC016A897B8967
:102FF0008C899D892AD0E418F50806091709A801CB
:1030000097017BD02A0D3B1D4C1D5D1DCA01B901E6
:10301000DF91CF911F910F91FF90EF90DF90CF90B4
:10302000BF90AF907F906F905F904F9008950895FC
:103030006FDAFDDF0E945A05C0ECD4E10E949E04C5
:103040002097E1F39DDCFACF0895DB018F939F93E6
:1030500076D0BF91AF91A29F800D911DA39F900D3F
:10306000B29F900D11240895AA1BBB1B51E107C00C
:10307000AA1FBB1FA617B70710F0A61BB70B881F08
:10308000991F5A95A9F780959095BC01CD01089597
:1030900097FB072E16F4009406D077FD08D0E4DFE6
:1030A00007FC05D03EF4909581959F4F089570954B
:1030B00061957F4F0895A1E21A2EAA1BBB1BFD014B
:1030C0000DC0AA1FBB1FEE1FFF1FA217B307E40707
:1030D000F50720F0A21BB30BE40BF50B661F771F5F
:1030E000881F991F1A9469F760957095809590953F
:1030F0009B01AC01BD01CF010895052E97FB16F48D
:1031000000940FD057FD05D0D6DF07FC02D046F45F
:1031100008C050954095309521953F4F4F4F5F4FD8
:10312000089590958095709561957F4F8F4F9F4F33
:103130000895EE0FFF1F0590F491E02D19940DD026
:10314000A59F900DB49F900DA49F800D911D1124FB
:1031500008950790F691E02D1994A29FB001B39FB6
:10316000C001A39F700D811D1124911DB29F700D90
:10317000811D1124911D0895DC0101C06D93415002
:103180005040E0F708950F931F93CF93DF93CDB78F
:10319000DEB72E970FB6F894DEBF0FBECDBF0E89F7
:1031A0001F8986E08C831A8309838FEF9FE79E83B4
:1031B0008D83AE01465E5F4F688D798DCE0101969D
:1031C00010D0EF81F885E00FF11F10822E960FB618
:1031D000F894DEBF0FBECDBFDF91CF911F910F914D
:1031E00008952F923F924F925F926F927F928F92AB
:1031F0009F92AF92BF92CF92DF92EF92FF920F9386
:103200001F93CF93DF93CDB7DEB72C970FB6F8940B
:10321000DEBF0FBECDBF7C016B018A01FC011782AE
:103220001682838181FFB0C1CE0101964C01F70166
:103230009381F60193FD859193FF81916F0188231E
:1032400009F49EC1853239F493FD859193FF8191F4
:103250006F01853221F4B70190E0C7D1E8CF512C3E
:10326000312C20E02032A0F48B3269F030F480322F
:1032700059F0833269F420612CC08D3239F08033EB
:1032800039F4216026C02260246023C0286021C058
:1032900027FD27C030ED380F3A3078F426FF06C0FE
:1032A000FAE05F9E300D1124532E13C08AE0389E41
:1032B000300D1124332E20620CC08E3221F426FDF5
:1032C0005FC1206406C08C3611F4206802C08836C5
:1032D00041F4F60193FD859193FF81916F01811176
:1032E000C1CF982F9F7D9554933028F40C5F1F4FCA
:1032F000FFE3F9830DC0833631F0833771F08335F6
:1033000009F057C021C0F801808189830E5F1F4FEB
:1033100044244394512C540114C03801F2E06F0E40
:10332000711CF801A080B18026FF03C0652D70E0FC
:1033300002C06FEF7FEFC5012C874CD12C018301B8
:103340002C852F77222E16C03801F2E06F0E711CEB
:10335000F801A080B18026FF03C0652D70E002C097
:103360006FEF7FEFC5012C872AD12C012C852068B7
:10337000222E830123FC19C0832D90E048165906A4
:10338000A0F4B70180E290E030D13A94F5CFF50196
:1033900027FC859127FE81915F01B70190E025D13F
:1033A00031103A94F1E04F1A51084114510479F761
:1033B000DEC0843611F0893631F5F80127FF07C0E9
:1033C00060817181828193810C5F1F4F08C0608191
:1033D0007181882777FD8095982F0E5F1F4F2F767C
:1033E000B22E97FF09C090958095709561957F4F9B
:1033F0008F4F9F4F2068B22E2AE030E0A40127D1E2
:10340000A82EA81843C0853729F42F7EB22E2AE0B3
:1034100030E025C0F22FF97FBF2E8F36C1F018F4AF
:10342000883579F0ADC0803719F0883721F0A8C011
:103430002F2F2061B22EB4FE0DC08B2D8460B82ECC
:1034400009C024FF0AC09F2F9660B92E06C028E04D
:1034500030E005C020E130E002C020E132E0F801B8
:10346000B7FE07C060817181828193810C5F1F4F1D
:1034700006C06081718180E090E00E5F1F4FA40163
:10348000E6D0A82EA818FB2DFF77BF2EB6FE0BC0E6
:103490002B2D2E7FA51450F4B4FE0AC0B2FC08C038
:1034A0002B2D2E7E05C07A2C2B2D03C07A2C01C02B
:1034B000752C24FF0DC0FE01EA0DF11D80818033C3
:1034C00011F4297E09C022FF06C07394739404C0CE
:1034D000822F867809F0739423FD12C020FF06C066
:1034E0005A2C731418F4530C5718732C731460F47B
:1034F000B70180E290E02C8778D073942C85F6CFCA
:10350000731410F4371801C0312C24FF11C0B70117
:1035100080E390E02C8769D02C8522FF16C021FF24
:1035200003C088E590E002C088E790E0B7010CC0D6
:10353000822F867851F021FD02C080E201C08BE22B
:1035400027FD8DE2B70190E050D0A51430F4B7010B
:1035500080E390E04AD05A94F8CFAA94F401EA0D9F
:10356000F11D8081B70190E040D0A110F6CF33204B
:1035700009F45DCEB70180E290E037D03A94F7CFFE
:10358000F7018681978102C08FEF9FEF2C960FB6CF
:10359000F894DEBF0FBECDBFDF91CF911F910F9189
:1035A000FF90EF90DF90CF90BF90AF909F908F9063
:1035B0007F906F905F904F903F902F900895FC0107
:1035C0000590615070400110D8F7809590958E0F4E
:1035D0009F1F0895FC016150704001900110D8F7C1
:1035E000809590958E0F9F1F08950F931F93CF93F3
:1035F000DF93182F092FEB018B8181FD03C08FEF23
:103600009FEF20C082FF10C04E815F812C813D81E1
:10361000421753077CF4E881F9819F012F5F3F4FE8
:1036200039832883108306C0E885F985812F199591
:10363000892B29F72E813F812F5F3F4F3F832E83B8
:10364000812F902FDF91CF911F910F910895FA0153
:10365000AA27283051F1203181F1E8946F936E7FD1
:103660006E5F7F4F8F4F9F4FAF4FB1E03ED0B4E0C2
:103670003CD0670F781F891F9A1FA11D680F791F03
:103680008A1F911DA11D6A0F711D811D911DA11D14
:1036900020D009F468943F912AE0269F1124301924
:1036A000305D3193DEF6CF010895462F4770405DBF
:1036B0004193B3E00FD0C9F7F6CF462F4F70405D6E
:1036C0004A3318F0495D31FD4052419302D0A9F7C9
:1036D000EACFB4E0A6959795879577956795BA95C3
:1036E000C9F700976105710508959B01AC010A2E89
:1036F00006945795479537952795BA95C9F7620F60
:0E370000731F841F951FA01D0895F894FFCF1E
:10370E000000CF048000010000006B025A02490243
:10371E003802270216020D002400FF0300000000ED
:10372E00000000130007000C002200FF0300000041
:10373E0000000000120006000B002000FF03000036
:10374E000000000000110005000A001E00FF03002B
:10375E000000000000001000040009001C00FF0320
:10376E00000000000000000F00030008001A00FF18
:10377E0003000000000000000E0002000156494444
:10378E003A253034582C205049443A2530345800CC
:10379E00253038583A200020253032580070696E96
:1037AE0073200063616C696220636C697020230072
:1037BE004C6976696E6720496E737472756D656EAD
:1037CE007420736179732048656C6C6F20576F722B
:1037DE006C642100636F6E66696775726520636C39
:1037EE0069702070696E730063616C6962726174D6
:1037FE006520636C697073002D2D2D2D2D2D2D2DB3
:10380E002D2D2D2D0000000000C506A305B005AC22
:10381E0005AD05A505A605A805AA05000000009B97
:10382E000927096C0F000000003E15AD169314AC6D
:10383E00149E141D150D0A006E616E00696E6600F1
:06384E006F7666002E00FB
:00000001FF
